{
	"DocumentVerifier.sol": {
		"DocumentVerifier": {
			"abi": [
				{
					"anonymous": false,
					"inputs": [
						{
							"indexed": true,
							"internalType": "bytes32",
							"name": "docHash",
							"type": "bytes32"
						},
						{
							"indexed": true,
							"internalType": "address",
							"name": "by",
							"type": "address"
						},
						{
							"indexed": false,
							"internalType": "uint256",
							"name": "ts",
							"type": "uint256"
						}
					],
					"name": "DocumentRegistered",
					"type": "event"
				},
				{
					"inputs": [
						{
							"internalType": "bytes32",
							"name": "docHash",
							"type": "bytes32"
						}
					],
					"name": "registerDocument",
					"outputs": [],
					"stateMutability": "nonpayable",
					"type": "function"
				},
				{
					"inputs": [
						{
							"internalType": "bytes32",
							"name": "",
							"type": "bytes32"
						}
					],
					"name": "registered",
					"outputs": [
						{
							"internalType": "bool",
							"name": "",
							"type": "bool"
						}
					],
					"stateMutability": "view",
					"type": "function"
				},
				{
					"inputs": [
						{
							"internalType": "bytes32",
							"name": "docHash",
							"type": "bytes32"
						}
					],
					"name": "verifyDocument",
					"outputs": [
						{
							"internalType": "bool",
							"name": "",
							"type": "bool"
						}
					],
					"stateMutability": "view",
					"type": "function"
				}
			],
			"devdoc": {
				"kind": "dev",
				"methods": {},
				"version": 1
			},
			"evm": {
				"assembly": "    /* \"DocumentVerifier.sol\":58:570  contract DocumentVerifier {... */\n  mstore(0x40, 0x80)\n  callvalue\n  dup1\n  iszero\n  tag_1\n  jumpi\n  revert(0x00, 0x00)\ntag_1:\n  pop\n  dataSize(sub_0)\n  dup1\n  dataOffset(sub_0)\n  0x00\n  codecopy\n  0x00\n  return\nstop\n\nsub_0: assembly {\n        /* \"DocumentVerifier.sol\":58:570  contract DocumentVerifier {... */\n      mstore(0x40, 0x80)\n      callvalue\n      dup1\n      iszero\n      tag_1\n      jumpi\n      revert(0x00, 0x00)\n    tag_1:\n      pop\n      jumpi(tag_2, lt(calldatasize, 0x04))\n      shr(0xe0, calldataload(0x00))\n      dup1\n      0x5524d548\n      eq\n      tag_3\n      jumpi\n      dup1\n      0x9b131974\n      eq\n      tag_4\n      jumpi\n      dup1\n      0xfe35089f\n      eq\n      tag_5\n      jumpi\n    tag_2:\n      revert(0x00, 0x00)\n        /* \"DocumentVerifier.sol\":90:132  mapping(bytes32 => bool) public registered */\n    tag_3:\n      tag_6\n      0x04\n      dup1\n      calldatasize\n      sub\n      dup2\n      add\n      swap1\n      tag_7\n      swap2\n      swap1\n      tag_8\n      jump\t// in\n    tag_7:\n      tag_9\n      jump\t// in\n    tag_6:\n      mload(0x40)\n      tag_10\n      swap2\n      swap1\n      tag_11\n      jump\t// in\n    tag_10:\n      mload(0x40)\n      dup1\n      swap2\n      sub\n      swap1\n      return\n        /* \"DocumentVerifier.sol\":226:451  function registerDocument(bytes32 docHash) public {... */\n    tag_4:\n      tag_12\n      0x04\n      dup1\n      calldatasize\n      sub\n      dup2\n      add\n      swap1\n      tag_13\n      swap2\n      swap1\n      tag_8\n      jump\t// in\n    tag_13:\n      tag_14\n      jump\t// in\n    tag_12:\n      stop\n        /* \"DocumentVerifier.sol\":457:568  function verifyDocument(bytes32 docHash) public view returns (bool) {... */\n    tag_5:\n      tag_15\n      0x04\n      dup1\n      calldatasize\n      sub\n      dup2\n      add\n      swap1\n      tag_16\n      swap2\n      swap1\n      tag_8\n      jump\t// in\n    tag_16:\n      tag_17\n      jump\t// in\n    tag_15:\n      mload(0x40)\n      tag_18\n      swap2\n      swap1\n      tag_11\n      jump\t// in\n    tag_18:\n      mload(0x40)\n      dup1\n      swap2\n      sub\n      swap1\n      return\n        /* \"DocumentVerifier.sol\":90:132  mapping(bytes32 => bool) public registered */\n    tag_9:\n      mstore(0x20, 0x00)\n      dup1\n      0x00\n      mstore\n      keccak256(0x00, 0x40)\n      0x00\n      swap2\n      pop\n      sload\n      swap1\n      0x0100\n      exp\n      swap1\n      div\n      0xff\n      and\n      dup2\n      jump\t// out\n        /* \"DocumentVerifier.sol\":226:451  function registerDocument(bytes32 docHash) public {... */\n    tag_14:\n        /* \"DocumentVerifier.sol\":295:305  registered */\n      0x00\n        /* \"DocumentVerifier.sol\":295:314  registered[docHash] */\n      0x00\n        /* \"DocumentVerifier.sol\":306:313  docHash */\n      dup3\n        /* \"DocumentVerifier.sol\":295:314  registered[docHash] */\n      dup2\n      mstore\n      0x20\n      add\n      swap1\n      dup2\n      mstore\n      0x20\n      add\n      0x00\n      keccak256\n      0x00\n      swap1\n      sload\n      swap1\n      0x0100\n      exp\n      swap1\n      div\n      0xff\n      and\n        /* \"DocumentVerifier.sol\":294:314  !registered[docHash] */\n      iszero\n        /* \"DocumentVerifier.sol\":286:337  require(!registered[docHash], \"already registered\") */\n      tag_20\n      jumpi\n      mload(0x40)\n      0x08c379a000000000000000000000000000000000000000000000000000000000\n      dup2\n      mstore\n      0x04\n      add\n      tag_21\n      swap1\n      tag_22\n      jump\t// in\n    tag_21:\n      mload(0x40)\n      dup1\n      swap2\n      sub\n      swap1\n      revert\n    tag_20:\n        /* \"DocumentVerifier.sol\":369:373  true */\n      0x01\n        /* \"DocumentVerifier.sol\":347:357  registered */\n      0x00\n        /* \"DocumentVerifier.sol\":347:366  registered[docHash] */\n      0x00\n        /* \"DocumentVerifier.sol\":358:365  docHash */\n      dup4\n        /* \"DocumentVerifier.sol\":347:366  registered[docHash] */\n      dup2\n      mstore\n      0x20\n      add\n      swap1\n      dup2\n      mstore\n      0x20\n      add\n      0x00\n      keccak256\n      0x00\n        /* \"DocumentVerifier.sol\":347:373  registered[docHash] = true */\n      0x0100\n      exp\n      dup2\n      sload\n      dup2\n      0xff\n      mul\n      not\n      and\n      swap1\n      dup4\n      iszero\n      iszero\n      mul\n      or\n      swap1\n      sstore\n      pop\n        /* \"DocumentVerifier.sol\":416:426  msg.sender */\n      caller\n        /* \"DocumentVerifier.sol\":388:444  DocumentRegistered(docHash, msg.sender, block.timestamp) */\n      0xffffffffffffffffffffffffffffffffffffffff\n      and\n        /* \"DocumentVerifier.sol\":407:414  docHash */\n      dup2\n        /* \"DocumentVerifier.sol\":388:444  DocumentRegistered(docHash, msg.sender, block.timestamp) */\n      0x6569e54c43a697fc61e67763858d5abef16899d2b13215c7c07090aa878b24a8\n        /* \"DocumentVerifier.sol\":428:443  block.timestamp */\n      timestamp\n        /* \"DocumentVerifier.sol\":388:444  DocumentRegistered(docHash, msg.sender, block.timestamp) */\n      mload(0x40)\n      tag_23\n      swap2\n      swap1\n      tag_24\n      jump\t// in\n    tag_23:\n      mload(0x40)\n      dup1\n      swap2\n      sub\n      swap1\n      log3\n        /* \"DocumentVerifier.sol\":226:451  function registerDocument(bytes32 docHash) public {... */\n      pop\n      jump\t// out\n        /* \"DocumentVerifier.sol\":457:568  function verifyDocument(bytes32 docHash) public view returns (bool) {... */\n    tag_17:\n        /* \"DocumentVerifier.sol\":519:523  bool */\n      0x00\n        /* \"DocumentVerifier.sol\":542:552  registered */\n      0x00\n        /* \"DocumentVerifier.sol\":542:561  registered[docHash] */\n      0x00\n        /* \"DocumentVerifier.sol\":553:560  docHash */\n      dup4\n        /* \"DocumentVerifier.sol\":542:561  registered[docHash] */\n      dup2\n      mstore\n      0x20\n      add\n      swap1\n      dup2\n      mstore\n      0x20\n      add\n      0x00\n      keccak256\n      0x00\n      swap1\n      sload\n      swap1\n      0x0100\n      exp\n      swap1\n      div\n      0xff\n      and\n        /* \"DocumentVerifier.sol\":535:561  return registered[docHash] */\n      swap1\n      pop\n        /* \"DocumentVerifier.sol\":457:568  function verifyDocument(bytes32 docHash) public view returns (bool) {... */\n      swap2\n      swap1\n      pop\n      jump\t// out\n        /* \"#utility.yul\":88:205   */\n    tag_27:\n        /* \"#utility.yul\":197:198   */\n      0x00\n        /* \"#utility.yul\":194:195   */\n      0x00\n        /* \"#utility.yul\":187:199   */\n      revert\n        /* \"#utility.yul\":334:411   */\n    tag_29:\n        /* \"#utility.yul\":371:378   */\n      0x00\n        /* \"#utility.yul\":400:405   */\n      dup2\n        /* \"#utility.yul\":389:405   */\n      swap1\n      pop\n        /* \"#utility.yul\":334:411   */\n      swap2\n      swap1\n      pop\n      jump\t// out\n        /* \"#utility.yul\":417:539   */\n    tag_30:\n        /* \"#utility.yul\":490:514   */\n      tag_45\n        /* \"#utility.yul\":508:513   */\n      dup2\n        /* \"#utility.yul\":490:514   */\n      tag_29\n      jump\t// in\n    tag_45:\n        /* \"#utility.yul\":483:488   */\n      dup2\n        /* \"#utility.yul\":480:515   */\n      eq\n        /* \"#utility.yul\":470:533   */\n      tag_46\n      jumpi\n        /* \"#utility.yul\":529:530   */\n      0x00\n        /* \"#utility.yul\":526:527   */\n      0x00\n        /* \"#utility.yul\":519:531   */\n      revert\n        /* \"#utility.yul\":470:533   */\n    tag_46:\n        /* \"#utility.yul\":417:539   */\n      pop\n      jump\t// out\n        /* \"#utility.yul\":545:684   */\n    tag_31:\n        /* \"#utility.yul\":591:596   */\n      0x00\n        /* \"#utility.yul\":629:635   */\n      dup2\n        /* \"#utility.yul\":616:636   */\n      calldataload\n        /* \"#utility.yul\":607:636   */\n      swap1\n      pop\n        /* \"#utility.yul\":645:678   */\n      tag_48\n        /* \"#utility.yul\":672:677   */\n      dup2\n        /* \"#utility.yul\":645:678   */\n      tag_30\n      jump\t// in\n    tag_48:\n        /* \"#utility.yul\":545:684   */\n      swap3\n      swap2\n      pop\n      pop\n      jump\t// out\n        /* \"#utility.yul\":690:1019   */\n    tag_8:\n        /* \"#utility.yul\":749:755   */\n      0x00\n        /* \"#utility.yul\":798:800   */\n      0x20\n        /* \"#utility.yul\":786:795   */\n      dup3\n        /* \"#utility.yul\":777:784   */\n      dup5\n        /* \"#utility.yul\":773:796   */\n      sub\n        /* \"#utility.yul\":769:801   */\n      slt\n        /* \"#utility.yul\":766:885   */\n      iszero\n      tag_50\n      jumpi\n        /* \"#utility.yul\":804:883   */\n      tag_51\n      tag_27\n      jump\t// in\n    tag_51:\n        /* \"#utility.yul\":766:885   */\n    tag_50:\n        /* \"#utility.yul\":924:925   */\n      0x00\n        /* \"#utility.yul\":949:1002   */\n      tag_52\n        /* \"#utility.yul\":994:1001   */\n      dup5\n        /* \"#utility.yul\":985:991   */\n      dup3\n        /* \"#utility.yul\":974:983   */\n      dup6\n        /* \"#utility.yul\":970:992   */\n      add\n        /* \"#utility.yul\":949:1002   */\n      tag_31\n      jump\t// in\n    tag_52:\n        /* \"#utility.yul\":939:1002   */\n      swap2\n      pop\n        /* \"#utility.yul\":895:1012   */\n      pop\n        /* \"#utility.yul\":690:1019   */\n      swap3\n      swap2\n      pop\n      pop\n      jump\t// out\n        /* \"#utility.yul\":1025:1115   */\n    tag_32:\n        /* \"#utility.yul\":1059:1066   */\n      0x00\n        /* \"#utility.yul\":1102:1107   */\n      dup2\n        /* \"#utility.yul\":1095:1108   */\n      iszero\n        /* \"#utility.yul\":1088:1109   */\n      iszero\n        /* \"#utility.yul\":1077:1109   */\n      swap1\n      pop\n        /* \"#utility.yul\":1025:1115   */\n      swap2\n      swap1\n      pop\n      jump\t// out\n        /* \"#utility.yul\":1121:1230   */\n    tag_33:\n        /* \"#utility.yul\":1202:1223   */\n      tag_55\n        /* \"#utility.yul\":1217:1222   */\n      dup2\n        /* \"#utility.yul\":1202:1223   */\n      tag_32\n      jump\t// in\n    tag_55:\n        /* \"#utility.yul\":1197:1200   */\n      dup3\n        /* \"#utility.yul\":1190:1224   */\n      mstore\n        /* \"#utility.yul\":1121:1230   */\n      pop\n      pop\n      jump\t// out\n        /* \"#utility.yul\":1236:1446   */\n    tag_11:\n        /* \"#utility.yul\":1323:1327   */\n      0x00\n        /* \"#utility.yul\":1361:1363   */\n      0x20\n        /* \"#utility.yul\":1350:1359   */\n      dup3\n        /* \"#utility.yul\":1346:1364   */\n      add\n        /* \"#utility.yul\":1338:1364   */\n      swap1\n      pop\n        /* \"#utility.yul\":1374:1439   */\n      tag_57\n        /* \"#utility.yul\":1436:1437   */\n      0x00\n        /* \"#utility.yul\":1425:1434   */\n      dup4\n        /* \"#utility.yul\":1421:1438   */\n      add\n        /* \"#utility.yul\":1412:1418   */\n      dup5\n        /* \"#utility.yul\":1374:1439   */\n      tag_33\n      jump\t// in\n    tag_57:\n        /* \"#utility.yul\":1236:1446   */\n      swap3\n      swap2\n      pop\n      pop\n      jump\t// out\n        /* \"#utility.yul\":1452:1621   */\n    tag_34:\n        /* \"#utility.yul\":1536:1547   */\n      0x00\n        /* \"#utility.yul\":1570:1576   */\n      dup3\n        /* \"#utility.yul\":1565:1568   */\n      dup3\n        /* \"#utility.yul\":1558:1577   */\n      mstore\n        /* \"#utility.yul\":1610:1614   */\n      0x20\n        /* \"#utility.yul\":1605:1608   */\n      dup3\n        /* \"#utility.yul\":1601:1615   */\n      add\n        /* \"#utility.yul\":1586:1615   */\n      swap1\n      pop\n        /* \"#utility.yul\":1452:1621   */\n      swap3\n      swap2\n      pop\n      pop\n      jump\t// out\n        /* \"#utility.yul\":1627:1795   */\n    tag_35:\n        /* \"#utility.yul\":1767:1787   */\n      0x616c726561647920726567697374657265640000000000000000000000000000\n        /* \"#utility.yul\":1763:1764   */\n      0x00\n        /* \"#utility.yul\":1755:1761   */\n      dup3\n        /* \"#utility.yul\":1751:1765   */\n      add\n        /* \"#utility.yul\":1744:1788   */\n      mstore\n        /* \"#utility.yul\":1627:1795   */\n      pop\n      jump\t// out\n        /* \"#utility.yul\":1801:2167   */\n    tag_36:\n        /* \"#utility.yul\":1943:1946   */\n      0x00\n        /* \"#utility.yul\":1964:2031   */\n      tag_61\n        /* \"#utility.yul\":2028:2030   */\n      0x12\n        /* \"#utility.yul\":2023:2026   */\n      dup4\n        /* \"#utility.yul\":1964:2031   */\n      tag_34\n      jump\t// in\n    tag_61:\n        /* \"#utility.yul\":1957:2031   */\n      swap2\n      pop\n        /* \"#utility.yul\":2040:2133   */\n      tag_62\n        /* \"#utility.yul\":2129:2132   */\n      dup3\n        /* \"#utility.yul\":2040:2133   */\n      tag_35\n      jump\t// in\n    tag_62:\n        /* \"#utility.yul\":2158:2160   */\n      0x20\n        /* \"#utility.yul\":2153:2156   */\n      dup3\n        /* \"#utility.yul\":2149:2161   */\n      add\n        /* \"#utility.yul\":2142:2161   */\n      swap1\n      pop\n        /* \"#utility.yul\":1801:2167   */\n      swap2\n      swap1\n      pop\n      jump\t// out\n        /* \"#utility.yul\":2173:2592   */\n    tag_22:\n        /* \"#utility.yul\":2339:2343   */\n      0x00\n        /* \"#utility.yul\":2377:2379   */\n      0x20\n        /* \"#utility.yul\":2366:2375   */\n      dup3\n        /* \"#utility.yul\":2362:2380   */\n      add\n        /* \"#utility.yul\":2354:2380   */\n      swap1\n      pop\n        /* \"#utility.yul\":2426:2435   */\n      dup2\n        /* \"#utility.yul\":2420:2424   */\n      dup2\n        /* \"#utility.yul\":2416:2436   */\n      sub\n        /* \"#utility.yul\":2412:2413   */\n      0x00\n        /* \"#utility.yul\":2401:2410   */\n      dup4\n        /* \"#utility.yul\":2397:2414   */\n      add\n        /* \"#utility.yul\":2390:2437   */\n      mstore\n        /* \"#utility.yul\":2454:2585   */\n      tag_64\n        /* \"#utility.yul\":2580:2584   */\n      dup2\n        /* \"#utility.yul\":2454:2585   */\n      tag_36\n      jump\t// in\n    tag_64:\n        /* \"#utility.yul\":2446:2585   */\n      swap1\n      pop\n        /* \"#utility.yul\":2173:2592   */\n      swap2\n      swap1\n      pop\n      jump\t// out\n        /* \"#utility.yul\":2598:2675   */\n    tag_37:\n        /* \"#utility.yul\":2635:2642   */\n      0x00\n        /* \"#utility.yul\":2664:2669   */\n      dup2\n        /* \"#utility.yul\":2653:2669   */\n      swap1\n      pop\n        /* \"#utility.yul\":2598:2675   */\n      swap2\n      swap1\n      pop\n      jump\t// out\n        /* \"#utility.yul\":2681:2799   */\n    tag_38:\n        /* \"#utility.yul\":2768:2792   */\n      tag_67\n        /* \"#utility.yul\":2786:2791   */\n      dup2\n        /* \"#utility.yul\":2768:2792   */\n      tag_37\n      jump\t// in\n    tag_67:\n        /* \"#utility.yul\":2763:2766   */\n      dup3\n        /* \"#utility.yul\":2756:2793   */\n      mstore\n        /* \"#utility.yul\":2681:2799   */\n      pop\n      pop\n      jump\t// out\n        /* \"#utility.yul\":2805:3027   */\n    tag_24:\n        /* \"#utility.yul\":2898:2902   */\n      0x00\n        /* \"#utility.yul\":2936:2938   */\n      0x20\n        /* \"#utility.yul\":2925:2934   */\n      dup3\n        /* \"#utility.yul\":2921:2939   */\n      add\n        /* \"#utility.yul\":2913:2939   */\n      swap1\n      pop\n        /* \"#utility.yul\":2949:3020   */\n      tag_69\n        /* \"#utility.yul\":3017:3018   */\n      0x00\n        /* \"#utility.yul\":3006:3015   */\n      dup4\n        /* \"#utility.yul\":3002:3019   */\n      add\n        /* \"#utility.yul\":2993:2999   */\n      dup5\n        /* \"#utility.yul\":2949:3020   */\n      tag_38\n      jump\t// in\n    tag_69:\n        /* \"#utility.yul\":2805:3027   */\n      swap3\n      swap2\n      pop\n      pop\n      jump\t// out\n\n    auxdata: 0xa26469706673582212201088fa3e223fa0882ecabaaab304ae83b711d4e5d97454d171bfb8ccc7bb6c0d64736f6c634300081e0033\n}\n",
				"bytecode": {
					"linkReferences": {},
					"object": "6080604052348015600e575f5ffd5b5061034b8061001c5f395ff3fe608060405234801561000f575f5ffd5b506004361061003f575f3560e01c80635524d548146100435780639b13197414610073578063fe35089f1461008f575b5f5ffd5b61005d6004803603810190610058919061020e565b6100bf565b60405161006a9190610253565b60405180910390f35b61008d6004803603810190610088919061020e565b6100db565b005b6100a960048036038101906100a4919061020e565b6101b2565b6040516100b69190610253565b60405180910390f35b5f602052805f5260405f205f915054906101000a900460ff1681565b5f5f8281526020019081526020015f205f9054906101000a900460ff1615610138576040517f08c379a000000000000000000000000000000000000000000000000000000000815260040161012f906102c6565b60405180910390fd5b60015f5f8381526020019081526020015f205f6101000a81548160ff0219169083151502179055503373ffffffffffffffffffffffffffffffffffffffff16817f6569e54c43a697fc61e67763858d5abef16899d2b13215c7c07090aa878b24a8426040516101a791906102fc565b60405180910390a350565b5f5f5f8381526020019081526020015f205f9054906101000a900460ff169050919050565b5f5ffd5b5f819050919050565b6101ed816101db565b81146101f7575f5ffd5b50565b5f81359050610208816101e4565b92915050565b5f60208284031215610223576102226101d7565b5b5f610230848285016101fa565b91505092915050565b5f8115159050919050565b61024d81610239565b82525050565b5f6020820190506102665f830184610244565b92915050565b5f82825260208201905092915050565b7f616c7265616479207265676973746572656400000000000000000000000000005f82015250565b5f6102b060128361026c565b91506102bb8261027c565b602082019050919050565b5f6020820190508181035f8301526102dd816102a4565b9050919050565b5f819050919050565b6102f6816102e4565b82525050565b5f60208201905061030f5f8301846102ed565b9291505056fea26469706673582212201088fa3e223fa0882ecabaaab304ae83b711d4e5d97454d171bfb8ccc7bb6c0d64736f6c634300081e0033",
					"opcodes": "PUSH1 0x80 PUSH1 0x40 MSTORE CALLVALUE DUP1 ISZERO PUSH1 0xE JUMPI PUSH0 PUSH0 REVERT JUMPDEST POP PUSH2 0x34B DUP1 PUSH2 0x1C PUSH0 CODECOPY PUSH0 RETURN INVALID PUSH1 0x80 PUSH1 0x40 MSTORE CALLVALUE DUP1 ISZERO PUSH2 0xF JUMPI PUSH0 PUSH0 REVERT JUMPDEST POP PUSH1 0x4 CALLDATASIZE LT PUSH2 0x3F JUMPI PUSH0 CALLDATALOAD PUSH1 0xE0 SHR DUP1 PUSH4 0x5524D548 EQ PUSH2 0x43 JUMPI DUP1 PUSH4 0x9B131974 EQ PUSH2 0x73 JUMPI DUP1 PUSH4 0xFE35089F EQ PUSH2 0x8F JUMPI JUMPDEST PUSH0 PUSH0 REVERT JUMPDEST PUSH2 0x5D PUSH1 0x4 DUP1 CALLDATASIZE SUB DUP2 ADD SWAP1 PUSH2 0x58 SWAP2 SWAP1 PUSH2 0x20E JUMP JUMPDEST PUSH2 0xBF JUMP JUMPDEST PUSH1 0x40 MLOAD PUSH2 0x6A SWAP2 SWAP1 PUSH2 0x253 JUMP JUMPDEST PUSH1 0x40 MLOAD DUP1 SWAP2 SUB SWAP1 RETURN JUMPDEST PUSH2 0x8D PUSH1 0x4 DUP1 CALLDATASIZE SUB DUP2 ADD SWAP1 PUSH2 0x88 SWAP2 SWAP1 PUSH2 0x20E JUMP JUMPDEST PUSH2 0xDB JUMP JUMPDEST STOP JUMPDEST PUSH2 0xA9 PUSH1 0x4 DUP1 CALLDATASIZE SUB DUP2 ADD SWAP1 PUSH2 0xA4 SWAP2 SWAP1 PUSH2 0x20E JUMP JUMPDEST PUSH2 0x1B2 JUMP JUMPDEST PUSH1 0x40 MLOAD PUSH2 0xB6 SWAP2 SWAP1 PUSH2 0x253 JUMP JUMPDEST PUSH1 0x40 MLOAD DUP1 SWAP2 SUB SWAP1 RETURN JUMPDEST PUSH0 PUSH1 0x20 MSTORE DUP1 PUSH0 MSTORE PUSH1 0x40 PUSH0 KECCAK256 PUSH0 SWAP2 POP SLOAD SWAP1 PUSH2 0x100 EXP SWAP1 DIV PUSH1 0xFF AND DUP2 JUMP JUMPDEST PUSH0 PUSH0 DUP3 DUP2 MSTORE PUSH1 0x20 ADD SWAP1 DUP2 MSTORE PUSH1 0x20 ADD PUSH0 KECCAK256 PUSH0 SWAP1 SLOAD SWAP1 PUSH2 0x100 EXP SWAP1 DIV PUSH1 0xFF AND ISZERO PUSH2 0x138 JUMPI PUSH1 0x40 MLOAD PUSH32 0x8C379A000000000000000000000000000000000000000000000000000000000 DUP2 MSTORE PUSH1 0x4 ADD PUSH2 0x12F SWAP1 PUSH2 0x2C6 JUMP JUMPDEST PUSH1 0x40 MLOAD DUP1 SWAP2 SUB SWAP1 REVERT JUMPDEST PUSH1 0x1 PUSH0 PUSH0 DUP4 DUP2 MSTORE PUSH1 0x20 ADD SWAP1 DUP2 MSTORE PUSH1 0x20 ADD PUSH0 KECCAK256 PUSH0 PUSH2 0x100 EXP DUP2 SLOAD DUP2 PUSH1 0xFF MUL NOT AND SWAP1 DUP4 ISZERO ISZERO MUL OR SWAP1 SSTORE POP CALLER PUSH20 0xFFFFFFFFFFFFFFFFFFFFFFFFFFFFFFFFFFFFFFFF AND DUP2 PUSH32 0x6569E54C43A697FC61E67763858D5ABEF16899D2B13215C7C07090AA878B24A8 TIMESTAMP PUSH1 0x40 MLOAD PUSH2 0x1A7 SWAP2 SWAP1 PUSH2 0x2FC JUMP JUMPDEST PUSH1 0x40 MLOAD DUP1 SWAP2 SUB SWAP1 LOG3 POP JUMP JUMPDEST PUSH0 PUSH0 PUSH0 DUP4 DUP2 MSTORE PUSH1 0x20 ADD SWAP1 DUP2 MSTORE PUSH1 0x20 ADD PUSH0 KECCAK256 PUSH0 SWAP1 SLOAD SWAP1 PUSH2 0x100 EXP SWAP1 DIV PUSH1 0xFF AND SWAP1 POP SWAP2 SWAP1 POP JUMP JUMPDEST PUSH0 PUSH0 REVERT JUMPDEST PUSH0 DUP2 SWAP1 POP SWAP2 SWAP1 POP JUMP JUMPDEST PUSH2 0x1ED DUP2 PUSH2 0x1DB JUMP JUMPDEST DUP2 EQ PUSH2 0x1F7 JUMPI PUSH0 PUSH0 REVERT JUMPDEST POP JUMP JUMPDEST PUSH0 DUP2 CALLDATALOAD SWAP1 POP PUSH2 0x208 DUP2 PUSH2 0x1E4 JUMP JUMPDEST SWAP3 SWAP2 POP POP JUMP JUMPDEST PUSH0 PUSH1 0x20 DUP3 DUP5 SUB SLT ISZERO PUSH2 0x223 JUMPI PUSH2 0x222 PUSH2 0x1D7 JUMP JUMPDEST JUMPDEST PUSH0 PUSH2 0x230 DUP5 DUP3 DUP6 ADD PUSH2 0x1FA JUMP JUMPDEST SWAP2 POP POP SWAP3 SWAP2 POP POP JUMP JUMPDEST PUSH0 DUP2 ISZERO ISZERO SWAP1 POP SWAP2 SWAP1 POP JUMP JUMPDEST PUSH2 0x24D DUP2 PUSH2 0x239 JUMP JUMPDEST DUP3 MSTORE POP POP JUMP JUMPDEST PUSH0 PUSH1 0x20 DUP3 ADD SWAP1 POP PUSH2 0x266 PUSH0 DUP4 ADD DUP5 PUSH2 0x244 JUMP JUMPDEST SWAP3 SWAP2 POP POP JUMP JUMPDEST PUSH0 DUP3 DUP3 MSTORE PUSH1 0x20 DUP3 ADD SWAP1 POP SWAP3 SWAP2 POP POP JUMP JUMPDEST PUSH32 0x616C726561647920726567697374657265640000000000000000000000000000 PUSH0 DUP3 ADD MSTORE POP JUMP JUMPDEST PUSH0 PUSH2 0x2B0 PUSH1 0x12 DUP4 PUSH2 0x26C JUMP JUMPDEST SWAP2 POP PUSH2 0x2BB DUP3 PUSH2 0x27C JUMP JUMPDEST PUSH1 0x20 DUP3 ADD SWAP1 POP SWAP2 SWAP1 POP JUMP JUMPDEST PUSH0 PUSH1 0x20 DUP3 ADD SWAP1 POP DUP2 DUP2 SUB PUSH0 DUP4 ADD MSTORE PUSH2 0x2DD DUP2 PUSH2 0x2A4 JUMP JUMPDEST SWAP1 POP SWAP2 SWAP1 POP JUMP JUMPDEST PUSH0 DUP2 SWAP1 POP SWAP2 SWAP1 POP JUMP JUMPDEST PUSH2 0x2F6 DUP2 PUSH2 0x2E4 JUMP JUMPDEST DUP3 MSTORE POP POP JUMP JUMPDEST PUSH0 PUSH1 0x20 DUP3 ADD SWAP1 POP PUSH2 0x30F PUSH0 DUP4 ADD DUP5 PUSH2 0x2ED JUMP JUMPDEST SWAP3 SWAP2 POP POP JUMP INVALID LOG2 PUSH5 0x6970667358 0x22 SLT KECCAK256 LT DUP9 STATICCALL RETURNDATACOPY 0x22 EXTCODEHASH LOG0 DUP9 0x2E 0xCA 0xBA 0xAA 0xB3 DIV 0xAE DUP4 0xB7 GT 0xD4 JUMPF 0xD974 SLOAD DATALOADN 0x71BF 0xB8 0xCC 0xC7 0xBB PUSH13 0xD64736F6C634300081E003300 "
				},
				"gasEstimates": {
					"creation": {
						"codeDepositCost": "168600",
						"executionCost": "212",
						"totalCost": "168812"
					},
					"external": {
						"registerDocument(bytes32)": "28920",
						"registered(bytes32)": "2762",
						"verifyDocument(bytes32)": "2831"
					}
				},
				"methodIdentifiers": {
					"registerDocument(bytes32)": "9b131974",
					"registered(bytes32)": "5524d548",
					"verifyDocument(bytes32)": "fe35089f"
				}
			},
			"storageLayout": {
				"storage": [
					{
						"astId": 5,
						"contract": "DocumentVerifier.sol:DocumentVerifier",
						"label": "registered",
						"offset": 0,
						"slot": "0",
						"type": "t_mapping(t_bytes32,t_bool)"
					}
				],
				"types": {
					"t_bool": {
						"encoding": "inplace",
						"label": "bool",
						"numberOfBytes": "1"
					},
					"t_bytes32": {
						"encoding": "inplace",
						"label": "bytes32",
						"numberOfBytes": "32"
					},
					"t_mapping(t_bytes32,t_bool)": {
						"encoding": "mapping",
						"key": "t_bytes32",
						"label": "mapping(bytes32 => bool)",
						"numberOfBytes": "32",
						"value": "t_bool"
					}
				}
			},
			"userdoc": {
				"kind": "user",
				"methods": {},
				"version": 1
			}
		}
	}
}